285511601084940020253833646           P2850662940094786152628000012500033654587413DEBDIRECTOLEG12780       
285511601084940027248287980           P2850662940094794435348000002500033654587413DEBDIRECTOLEG21263       
285511601084940027248287980           P2850662940094794435348000002500033654587413DEBDIRECTOLEG21263       
034511601084940027126799719           P0340255108730038854000000005000033654587413DEBDIRECTOLEG89          
034511601084940020206793377           P0340255108122869827009000005680033654587413DEBDIRECTOLEG20569       
285511601084940023174512094           P2850662940094798339868000002000033654587413DEBDIRECTOLEG12564       
285511601084940020241759254           P2850662940094755922128000005000033654587413DEBDIRECTOLEG11901       
011511601084940027203705005           P0110463330046316778351000005000033654587413DEBDIRECTOLEG908         
285511601084940027307843884           P2850662940094751937418000005000033654587413DEBDIRECTOLEG1120        
285511601084940020213892143           P2850662940094758445978000006000033654587413DEBDIRECTOLEG20216       
285511601084940027282128492           P2850662940094746966168000005000033654587413DEBDIRECTOLEG11087       
011511601084940027222502069           P0110463330046316782347000005000033654587413DEBDIRECTOLEG21463       
034511601084940020055169994           P0340255108100511875006000003700033654587413DEBDIRECTOLEG21519       
285511601084940027231642043           P2850662940094781124558000005000033654587413DEBDIRECTOLEG11349       
285511601084940027254025742           P2850662940094779462778000027320033654587413DEBDIRECTOLEG372         
285511601084940020401002589           P2850662940094777213378000005000033654587413DEBDIRECTOLEG11611       
034511601084940020319392123           P0340255108122858378017000005000033654587413DEBDIRECTOLEG11398       
034511601084940020242602065           P0340255108730096106019000004590033654587413DEBDIRECTOLEG11900       
034511601084940020104422730           P0340255108730039665016000005000033654587413DEBDIRECTOLEG1464        
285511601084940020279655460           P2850662940094746099068000020800033654587413DEBDIRECTOLEG11287       
285511601084940027270427532           P2850662940094020480078000005000033654587413DEBDIRECTOLEG832         
034511601084940020137142407           P0340255108730038998010000006340033654587413DEBDIRECTOLEG695         
285511601084940023350746889           P2850662940094757678708000029360033654587413DEBDIRECTOLEG13086       
285511601084940020274065223           P2850662940094793483478000009000033654587413DEBDIRECTOLEG11807       
5116010849400           P000002000033654587413DEBDIRECTOLEG            
011511601084940027295396186           P0110463330046316805451000005000033654587413DEBDIRECTOLEG11176       
011511601084940020268100300           P0110463330046316711729000005000033654587413DEBDIRECTOLEG21776       
011511601084940027130818175           P0110463330046316761151000006250033654587413DEBDIRECTOLEG11341       
011511601084940020326999688           P0110463330046316727551000005000033654587413DEBDIRECTOLEG11633       
011511601084940020285774218           P0110463330046316716915000005000033654587413DEBDIRECTOLEG494         
011511601084940020101853463           P0110463330046316656783000005000033654587413DEBDIRECTOLEG1155        
285511601084940027221225150           P2850662940094798275948000004000033654587413DEBDIRECTOLEG1803        
285511601084940027280545061           P2850662940094759671538000015000033654587413DEBDIRECTOLEG11713       
285511601084940027127114043           P2850662940094792999008000010000033654587413DEBDIRECTOLEG1452        
285511601084940027274071341           P2850662940094788095288000003130033654587413DEBDIRECTOLEG12359       
034511601084940027101487186           P0340255108122855756010000005000033654587413DEBDIRECTOLEG20400       
285511601084940027303918294           P2850662940094795625258000017750033654587413DEBDIRECTOLEG11052       
011511601084940027252569087           P0110463330046316792683000005000033654587413DEBDIRECTOLEG11221       
285511601084940027162977291           P2850662940094786050328000002500033654587413DEBDIRECTOLEG8624        
285511601084940027403214537           P2850662940094796197118000006000033654587413DEBDIRECTOLEG20005       
011511601084940027928100842           P0110463330046316826647000005000033654587413DEBDIRECTOLEG8626        
034511601084940027289325978           P0340255108122869845005000005000033654587413DEBDIRECTOLEG240         
034511601084940020261182042           P0340255108122856468008000005000033654587413DEBDIRECTOLEG21563       
011511601084940020127228494           P0110463330046316668315000005000033654587413DEBDIRECTOLEG622         
034511601084940027225276922           P0340255108122855079012000005000033654587413DEBDIRECTOLEG241         
285511601084940027184935371           P2850662940094783348318000005000033654587413DEBDIRECTOLEG12691       
285511601084940027163927026           P2850662940094783887628000005000033654587413DEBDIRECTOLEG888         
034511601084940020244523480           P0340255108122872946005000005000033654587413DEBDIRECTOLEG12226       
011511601084940020141380495           P0110463330046316674697000040000033654587413DEBDIRECTOLEG696         
034511601084940020127834181           P0340255108122870158008000020000033654587413DEBDIRECTOLEG11276       
034511601084940027173367150           P0340255108122869848004000005000033654587413DEBDIRECTOLEG21566       
285511601084940020163927536           P2850662940094756621198000014340033654587413DEBDIRECTOLEG12551       
285511601084940020239978836           P2850662940094745953558000005630033654587413DEBDIRECTOLEG20607       
034511601084940027926964408           P0340255108122870098005000011150033654587413DEBDIRECTOLEG660         
285511601084940027267029135           P2850662940094749666928000020000033654587413DEBDIRECTOLEG1839        
285511601084940027927194215           P2850662940094783515808000025600033654587413DEBDIRECTOLEG20890       
011511601084940027282367659           P0110463330046316803165000003430033654587413DEBDIRECTOLEG11551       
285511601084940023280000124           P2850662940094750551798000007050033654587413DEBDIRECTOLEG21657       
285511601084940024240952399           P2850662940094818454678000006580033654587413DEBDIRECTOLEG8455        
285511601084940020139893485           P2850662940094783349038000005740033654587413DEBDIRECTOLEG816         
285511601084940020160539640           P2850662940094604139518000005000033654587413DEBDIRECTOLEG694         
285511601084940020340197543           P2850662940094782013358000005000033654587413DEBDIRECTOLEG11616       
285511601084940020244696261           P2850662940094778988378000015000033654587413DEBDIRECTOLEG20583       
285511601084940027350772826           P2850662940094024484458000005000033654587413DEBDIRECTOLEG21876       
285511601084940020304795876           P2850662940094780837848000002500033654587413DEBDIRECTOLEG12633       
034511601084940027126799662           P0340255108730038498015000005000033654587413DEBDIRECTOLEG593         
285511601084940024301342922           P2850662940094017229198000005000033654587413DEBDIRECTOLEG1138        
285511601084940027332801037           P2850662940094758308228000020100033654587413DEBDIRECTOLEG12530       
285511601084940020336581576           P2850662940094757839398000005000033654587413DEBDIRECTOLEG11557       
034511601084940020266457678           P0340255108730039844015000017400033654587413DEBDIRECTOLEG20598       
285511601084940027247766397           P2850662930094109264721000005000033654587413DEBDIRECTOLEG228         
011511601084940027203437477           P0110463330046316778047000005000033654587413DEBDIRECTOLEG21527       
034511601084940027209961984           P0340255108122855400016000005000033654587413DEBDIRECTOLEG8492        
011511601084940027213891478           P0110463330046316780983000002750033654587413DEBDIRECTOLEG11758       
011511601084940023126797389           P0110463330046316736979000004260033654587413DEBDIRECTOLEG23          
285511601084940020206790432           P2850662940094813347018000005000033654587413DEBDIRECTOLEG21629       
034511601084940027224951790           P0340255108122870183006000005080033654587413DEBDIRECTOLEG11627       
285511601084940020339180580           P2850662940094752162808000022320033654587413DEBDIRECTOLEG11672       
011511601084940020308750303           P0110463330046317178365000004890033654587413DEBDIRECTOLEG13733       
285511601084940020160537885           P2850662940094786944858000005000033654587413DEBDIRECTOLEG619         
285511601084940020160537885           P2850662940094786944858000005000033654587413DEBDIRECTOLEG619         
011511601084940020358185143           P0110463330046317180829000004870033654587413DEBDIRECTOLEG13714       
034511601084940027179670807           P0340255108122870059004000004930033654587413DEBDIRECTOLEG21646       
034511601084940020201221375           P0340255108730038634011000005140033654587413DEBDIRECTOLEG608         
034511601084940027929471763           P0340255108122870203005000005000033654587413DEBDIRECTOLEG21440       
034511601084940020261182042           P0340255108122856468008000016410033654587413DEBDIRECTOLEG21563       
034511601084940020224951109           P0340255108730038588011000004570033654587413DEBDIRECTOLEG1171        
285511601084940020145193487           P2850662940094793618838000015000033654587413DEBDIRECTOLEG582         
285511601084940027274071341           P2850662940094788095288000004000033654587413DEBDIRECTOLEG12359       
011511601084940020106755206           P0110463330046316658215000009830033654587413DEBDIRECTOLEG3           
011511601084940027224781046           P0110463330046316782729000009370033654587413DEBDIRECTOLEG11047       
285511601084940020924528177           P2850662940094020309148000008680033654587413DEBDIRECTOLEG684         
011511601084940020312995388           P0110463330046316723283000003000033654587413DEBDIRECTOLEG12326       
285511601084940020258255209           P2850662940094747087558000004000033654587413DEBDIRECTOLEG11138       
285511601084940020148367699           P2850662940094785968778000008000033654587413DEBDIRECTOLEG413         
034511601084940023113456639           P0340255108730038861019000005000033654587413DEBDIRECTOLEG982         
285511601084940027135527764           P2850662940094012697468000010000033654587413DEBDIRECTOLEG1514        
285511601084940020325745011           P2850662940094791312558000001500033654587413DEBDIRECTOLEG13313       
285511601084940023238311349           P2850662940094790388998000005930033654587413DEBDIRECTOLEG11596       
034511601084940027186340316           P0340255108122869997003000010480033654587413DEBDIRECTOLEG1564        
285511601084940027927993312           P2850662940094800891638000010000033654587413DEBDIRECTOLEG21491       
285511601084940020295837501           P2850662940094054351168000006000033654587413DEBDIRECTOLEG11161       
285511601084940020217802300           P2850662940094786512158000011100033654587413DEBDIRECTOLEG12176       
011511601084940020922348813           P0110463330046316821147000005050033654587413DEBDIRECTOLEG10864       
285511601084940020185957374           P2850662940094783541748000017860033654587413DEBDIRECTOLEG1272        
285511601084940020274065150           P2850662940094750550658000011080033654587413DEBDIRECTOLEG11869       
285511601084940020303920820           P2850662940094759148128000009480033654587413DEBDIRECTOLEG12417       
034511601084940023147599099           P0340255108730038636017000010000033654587413DEBDIRECTOLEG890         
285511601084940020082136224           P2850662940094795820998000020000033654587413DEBDIRECTOLEG710         
011511601084940020145197318           P0110463330046316676747000008000033654587413DEBDIRECTOLEG679         
034511601084940027188938189           P0340255108122870041009000005250033654587413DEBDIRECTOLEG11103       
011511601084940020325746352           P0110463330046316727001000008000033654587413DEBDIRECTOLEG12413       
011511601084940027127152840           P0110463330046316760233000005250033654587413DEBDIRECTOLEG11248       
034511601084940027126799719           P0340255108730038854000000014000033654587413DEBDIRECTOLEG89          
285511601084940027248287980           P2850662940094794435348000016000033654587413DEBDIRECTOLEG21263       
285511601084940023270042724           P2850662940094751720528000008000033654587413DEBDIRECTOLEG11244       
285511601084940023203705204           P2850662940094831615308000008000033654587413DEBDIRECTOLEG11708       
285511601084940020106756849           P2850662940094013765618000008000033654587413DEBDIRECTOLEG11233       
034511601084940020135636038           P0340255108122875059009000008000033654587413DEBDIRECTOLEG12366       
034511601084940020217802939           P0340255108730038612020000008000033654587413DEBDIRECTOLEG1217        
285511601084940027244695103           P2850662940094791696788000008000033654587413DEBDIRECTOLEG395         
285511601084940020221225172           P2850662940094785519938000005250033654587413DEBDIRECTOLEG284         
011511601084940020248287013           P0110463330046316705515000005250033654587413DEBDIRECTOLEG162         
034511601084940020254022390           P0340255108122870099008000008000033654587413DEBDIRECTOLEG11999       
285511601084940020346675552           P2850662940094820531408000005840033654587413DEBDIRECTOLEG11920       
011511601084940027274350011           P0110463330046316799783000005250033654587413DEBDIRECTOLEG1042        
034511601084940020213882199           P0340255108122855372005000008000033654587413DEBDIRECTOLEG11183       
011511601084940027260196370           P0110463330046317429647000005250033654587413DEBDIRECTOLEG554         
285511601084940020358180028           P2850662940094845987318000002750033654587413DEBDIRECTOLEG20012       
285511601084940020113457458           P2850662940094745275908000008000033654587413DEBDIRECTOLEG300         
285511601084940020232868784           P2850662940094785520598000005250033654587413DEBDIRECTOLEG12163       
011511601084940027237847704           P0110463330046316787601000007000033654587413DEBDIRECTOLEG427         
285511601084940020351687844           P2850662940094836401078000005250033654587413DEBDIRECTOLEG12623       
034511601084940027142754520           P0340255108122869980001000008000033654587413DEBDIRECTOLEG11043       
285511601084940020319391542           P2850662940094747733178000014000033654587413DEBDIRECTOLEG12318       
034511601084940020163920442           P0340255108730038885013000008000033654587413DEBDIRECTOLEG1242        
285511601084940027221226564           P2850662940094752102628000016000033654587413DEBDIRECTOLEG860         
285511601084940027336584936           P2850662940094774574098000016000033654587413DEBDIRECTOLEG12806       
285511601084940020251156663           P2850662940094754066818000008000033654587413DEBDIRECTOLEG11760       
285511601084940020201224641           P2850662940094071366408000007000033654587413DEBDIRECTOLEG21754       
034511601084940027254026749           P0340255108122870153003000008000033654587413DEBDIRECTOLEG1806        
011511601084940027282366849           P0110463330046316802933000008000033654587413DEBDIRECTOLEG13293       
011511601084940027346669212           P0110463330046317044783000008000033654587413DEBDIRECTOLEG13693       
011511601084940027188530651           P0110463330046316776997000005250033654587413DEBDIRECTOLEG13617       
034511601084940027274890601           P0340255108122870132008000003000033654587413DEBDIRECTOLEG21493       
285511601084940020257487270           P2850662940094063958868000003000033654587413DEBDIRECTOLEG11286       
011511601084940020285777993           P0110463330046316717079000007000033654587413DEBDIRECTOLEG11917       
011511601084940020163922178           P0110463330046316680283000005250033654587413DEBDIRECTOLEG11006       
285511601084940020263875932           P2850662940094751475398000008000033654587413DEBDIRECTOLEG11622       
011511601084940023325741279           P0110463330046316750515000005250033654587413DEBDIRECTOLEG11441       
011511601084940020163923492           P0110463330046316680351000012000033654587413DEBDIRECTOLEG889         
034511601084940020163920248           P0340255108122870145008000011000033654587413DEBDIRECTOLEG446         
011511601084940020109858731           P0110463330046316659997000005410033654587413DEBDIRECTOLEG729         
011511601084940020113585537           P0110463330046316662133000005250033654587413DEBDIRECTOLEG11893       
285511601084940020146885390           P2850662940094795870658000004910033654587413DEBDIRECTOLEG823         
285511601084940027227493318           P2850662940094821362218000005683033654587413DEBDIRECTOLEG877         
011511601084940020240074800           P0110463330046316702929000012000033654587413DEBDIRECTOLEG11722       
011511601084940027251157478           P0110463330046316792065000008000033654587413DEBDIRECTOLEG20289       
011511601084940027299412712           P0110463330046316897883000008000033654587413DEBDIRECTOLEG13598       
285511601084940020310837963           P2850662940094793254658000007000033654587413DEBDIRECTOLEG11132       
285511601084940020340197543           P2850662940094782013358000008000033654587413DEBDIRECTOLEG11616       
285511601084940020274351765           P2850662940094836018638000008000033654587413DEBDIRECTOLEG20530       
285511601084940027120380600           P2850662940094750063608000016000033654587413DEBDIRECTOLEG11993       
011511601084940020085700260           P0110463330046316655865000005250033654587413DEBDIRECTOLEG718         
285511601084940027257011718           P2850662940094750882498000008000033654587413DEBDIRECTOLEG20472       
285511601084940027248285589           P2850662940094775782928000008000033654587413DEBDIRECTOLEG646         
285511601084940027207940742           P2850662940094025211518000005250033654587413DEBDIRECTOLEG165         
034511601084940027323208501           P0340255108122873467004000005250033654587413DEBDIRECTOLEG12257       
285511601084940027174511093           P2850662940094826312638000008000033654587413DEBDIRECTOLEG8168        
285511601084940020169676829           P2850662940094749827518000014000033654587413DEBDIRECTOLEG11186       
011511601084940020250361557           P0110463330046316705829000011000033654587413DEBDIRECTOLEG11153       
034511601084940027315519816           P0340255108122866035001000008000033654587413DEBDIRECTOLEG11788       
285511601084940027239976447           P2850662940094787816488000008000033654587413DEBDIRECTOLEG21557       
285511601084940027109858035           P2850662940094756486168000008000033654587413DEBDIRECTOLEG8596        
011511601084940027103880950           P0110463330046316753279000008000033654587413DEBDIRECTOLEG1809        
034511601084940027251157532           P0340255108122861339009000008000033654587413DEBDIRECTOLEG11592       
011511601084940020259590338           P0110463330046316708583000005250033654587413DEBDIRECTOLEG11546       
285511601084940027203707709           P2850662940094056011628000008000033654587413DEBDIRECTOLEG21297       
285511601084940023183048619           P2850662940094788475888000015940033654587413DEBDIRECTOLEG483         
011511601084940020227438488           P0110463330046316698929000005000033654587413DEBDIRECTOLEG864         
285511601084940027257864613           P2850662940094801301978000008000033654587413DEBDIRECTOLEG11299       
285511601084940027332804206           P2850662940094797235778000005250033654587413DEBDIRECTOLEG12644       
011511601084940027262334967           P0110463330046317185879000016000033654587413DEBDIRECTOLEG21602       
034511601084940027260817316           P0340255108122868732016000003340033654587413DEBDIRECTOLEG11350       
034511601084940027203704858           P0340255108122870047007000008320033654587413DEBDIRECTOLEG21773       
034511601084940020296044246           P0340255108730047072011000005090033654587413DEBDIRECTOLEG517         
011511601084940020170617984           P0110463330046316683565000005250033654587413DEBDIRECTOLEG565         
285511601084940027123512532           P2850662940094840839638000008000033654587413DEBDIRECTOLEG1550        
285511601084940027926545855           P2850662940094746592338000007180033654587413DEBDIRECTOLEG843         
285511601084940027263491179           P2850662940094799327488000008000033654587413DEBDIRECTOLEG8576        
285511601084940020142459001           P2850662940094812256928000008000033654587413DEBDIRECTOLEG184         
011511601084940027238310852           P0110463330046316787915000010500033654587413DEBDIRECTOLEG869         
011511601084940027118462284           P0110463330046316756933000008000033654587413DEBDIRECTOLEG11367       
034511601084940023227439394           P0340255108122855426000000008000033654587413DEBDIRECTOLEG896         
285511601084940020203706287           P2850662940094795966218000010000033654587413DEBDIRECTOLEG12341       
011511601084940027183049688           P0110463330046316774533000004130033654587413DEBDIRECTOLEG21494       
034511601084940020217802939           P0340255108730038612020000005000033654587413DEBDIRECTOLEG1217        
034511601084940020219732490           P0340292600292000585009000008000033654587413DEBDIRECTOLEG11786       
285511601084940020370997854           P2850662940094786117278000005250033654587413DEBDIRECTOLEG13712       
285511601084940020242600348           P2850662940094066794498000016000033654587413DEBDIRECTOLEG1775        
034511601084940027261323376           P0340255108122853174016000008000033654587413DEBDIRECTOLEG11751       
034511601084940020162084667           P0340255108730039774011000005250033654587413DEBDIRECTOLEG20602       
285511601084940027266459551           P2850662940094759857088000010000033654587413DEBDIRECTOLEG11365       
034511601084940020255208676           P0340255108122877079009000002500033654587413DEBDIRECTOLEG12631       
285511601084940020244697160           P2850662940094762647618000027440033654587413DEBDIRECTOLEG20136       
011511601084940020100451442           P0110463330046316656097000009380033654587413DEBDIRECTOLEG146         
011511601084940020130526307           P0110463330046316669165000009790033654587413DEBDIRECTOLEG348         
285511601084940020288121304           P2850662940094054938138000005000033654587413DEBDIRECTOLEG11624       
034511601084940020170957238           P0340255108730038502015000005250033654587413DEBDIRECTOLEG876         
285511601084940020299408931           P2850662940094783715918000008000033654587413DEBDIRECTOLEG11141       
034511601084940027139896450           P0340255108730038474011000008000033654587413DEBDIRECTOLEG293         
011511601084940027170618500           P0110463330046316770265000005250033654587413DEBDIRECTOLEG1535        
034511601084940023248287489           P0340255108122861834016000008000033654587413DEBDIRECTOLEG12348       
285511601084940020160539055           P2850662940094843578918000005800033654587413DEBDIRECTOLEG393         
285511601084940023179952254           P2850662940094024485758000005000033654587413DEBDIRECTOLEG11388       
011511601084940027264582194           P0110463330046316797183000008000033654587413DEBDIRECTOLEG13192       
034511601084940027303917727           P0340255108122857298006000007000033654587413DEBDIRECTOLEG1123        
011511601084940027203705005           P0110463330046316778351000002420033654587413DEBDIRECTOLEG908         
034511601084940027219130983           P0340255108122870023003000005370033654587413DEBDIRECTOLEG11359       
285511601084940020146885390           P2850662940094795870658000002500033654587413DEBDIRECTOLEG823         
034511601084940020055169994           P0340255108100511875006000001500033654587413DEBDIRECTOLEG21519       
285511601084940023368090069           P2850662940094750373488000010000033654587413DEBDIRECTOLEG12414       
285511601084940020234450213           P2850662940094794564048000005000033654587413DEBDIRECTOLEG12652       
285511601084940020109859959           P2850662940094061317748000005000033654587413DEBDIRECTOLEG755         
034511601084940020139892233           P0340255108122855439023000004970033654587413DEBDIRECTOLEG11312       
285511601084940020325745011           P2850662940094791312558000015610033654587413DEBDIRECTOLEG13313       
011511601084940020275095355           P0110463330046316714483000003000033654587413DEBDIRECTOLEG12315       
285511601084940020310837963           P2850662940094793254658000003750033654587413DEBDIRECTOLEG11132       
285511601084940020274351765           P2850662940094836018638000004640033654587413DEBDIRECTOLEG20530       
285511601084940020110010991           P2850662940094745850668000006950033654587413DEBDIRECTOLEG359         
285511601084940020336600279           P2850662940094839713028000004630033654587413DEBDIRECTOLEG11612       
034511601084940020236866433           P0340255108122869799005000007810033654587413DEBDIRECTOLEG842         
034511601084940020373648303           P0340255108122888636000000005090033654587413DEBDIRECTOLEG13715       
285511601084940020340197543           P2850662940094782013358000001170033654587413DEBDIRECTOLEG11616       
034511601084940027147597334           P0340255108122855384002000008800033654587413DEBDIRECTOLEG8180        
011511601084940020355939910           P0110463330046316732601000006250033654587413DEBDIRECTOLEG12678       
285511601084940020292279508           P2850662940094781071458000002500033654587413DEBDIRECTOLEG12387       
285511601084940027163922482           P2850662940094786565718000003000033654587413DEBDIRECTOLEG247         
011511601084940020232994054           P0110463330046316700183000003880033654587413DEBDIRECTOLEG20600       
034511601084940020170803745           P0340255108730039908003000010500033654587413DEBDIRECTOLEG20239       
285511601084940020363523839           P2850662940094786879088000004400033654587413DEBDIRECTOLEG13863       
011511601084940023206790369           P0110463330046316743247000004920033654587413DEBDIRECTOLEG11137       
011511601084940020299411835           P0110463330046316720079000004950033654587413DEBDIRECTOLEG13354       
285511601084940020292279508           P2850662940094781071458000000100033654587413DEBDIRECTOLEG12387       
285511601084940027135527764           P2850662940094012697468000010000033654587413DEBDIRECTOLEG1514        
011511601084940020259646449           P0110463330046316708651000005000033654587413DEBDIRECTOLEG12105       
285511601084940027234451567           P2850662940094781461998000005250033654587413DEBDIRECTOLEG20984       
285511601084940020146673989           P2850662940094752519178000007000033654587413DEBDIRECTOLEG766         
011511601084940027273431506           P0110463330046316799615000016000033654587413DEBDIRECTOLEG11330       
285511601084940027355931987           P2850662940094782916718000008000033654587413DEBDIRECTOLEG12677       
034511601084940020213889398           P0340255108720521433014000008000033654587413DEBDIRECTOLEG397         
285511601084940020126796502           P2850662940094780822088000005250033654587413DEBDIRECTOLEG464         
285511601084940020325745011           P2850662940094791312558000003150033654587413DEBDIRECTOLEG13313       
285511601084940023336601274           P2850662940094825606808000008000033654587413DEBDIRECTOLEG12630       
034511601084940027927438580           P0340255108122855398005000007000033654587413DEBDIRECTOLEG21405       
285511601084940020355946895           P2850662940094750702448000008000033654587413DEBDIRECTOLEG12416       
034511601084940020238311013           P0340255108122876510002000007000033654587413DEBDIRECTOLEG12651       
285511601084940020173369701           P2850662940094844505928000008000033654587413DEBDIRECTOLEG969         
034511601084940020188726667           P0340255108122870139009000008000033654587413DEBDIRECTOLEG11521       
285511601084940027358176513           P2850662940094749847688000010500033654587413DEBDIRECTOLEG20917       
034511601084940027227438776           P0340255108122855433018000010500033654587413DEBDIRECTOLEG1531        
285511601084940020137144264           P2850662940094772259788000010500033654587413DEBDIRECTOLEG971         
034511601084940020122253512           P0340255108730038713006000010500033654587413DEBDIRECTOLEG344         
034511601084940027213840857           P0340255108122869821001000010500033654587413DEBDIRECTOLEG11038       
011511601084940020225276987           P0110463330046316698547000010500033654587413DEBDIRECTOLEG440         
285511601084940027255996482           P2850662940094751948238000010500033654587413DEBDIRECTOLEG12057       
285511601084940027257864613           P2850662940094801301978000004970033654587413DEBDIRECTOLEG11299       
285511601084940023291657214           P2850662940094783767018000010500033654587413DEBDIRECTOLEG21436       
285511601084940024240952399           P2850662940094818454678000010500033654587413DEBDIRECTOLEG8455        
285511601084940020925085201           P2850662940094763572458000010500033654587413DEBDIRECTOLEG11158       
285511601084940027163922113           P2850662940094786204718000010500033654587413DEBDIRECTOLEG8625        
011511601084940023313511499           P0110463330046316749801000007780033654587413DEBDIRECTOLEG11705       
285511601084940027270427532           P2850662940094020480078000010500033654587413DEBDIRECTOLEG832         
011511601084940027219758257           P0110463330046316781801000010500033654587413DEBDIRECTOLEG11040       
285511601084940027267542924           P2850662940094819309908000010500033654587413DEBDIRECTOLEG846         
011511601084940027187754769           P0110463330046316776447000010500033654587413DEBDIRECTOLEG11301       
285511601084940020248287455           P2850662940094702980768000011000033654587413DEBDIRECTOLEG20590       
034511601084940020224951885           P0340255108122855378027000030500033654587413DEBDIRECTOLEG11998       
285511601084940023280000124           P2850662940094750551798000011000033654587413DEBDIRECTOLEG21657       
011511601084940027179546278           P0110463330046316773233000011000033654587413DEBDIRECTOLEG1545        
011511601084940027274892930           P0110463330046316800265000011000033654587413DEBDIRECTOLEG12542       
011511601084940023172321364           P0110463330046316740651000011000033654587413DEBDIRECTOLEG20204       
034511601084940027288121236           P0340255108122852743020000010500033654587413DEBDIRECTOLEG13683       
285511601084940020325743760           P2850662940094850820268000010500033654587413DEBDIRECTOLEG13368       
011511601084940020346666669           P0110463330046317565097000010500033654587413DEBDIRECTOLEG11969       
011511601084940027134773923           P0110463330046316761915000005250033654587413DEBDIRECTOLEG1808        
011511601084940020307844118           P0110463330046318142615000014300033654587413DEBDIRECTOLEG13291       
034511601084940027230332490           P0340255108292000909016000005250033654587413DEBDIRECTOLEG12787       
