285511510074940020142455782           P2850662940094728197788000002000033654587413DEBDIRECTOLEG884         
285511510074940020109859959           P2850662940094061317748000002500033654587413DEBDIRECTOLEG755         
285511510074940027179953027           P2850662940094783013388000015000033654587413DEBDIRECTOLEG747         
011511510074940020147597740           P0110463330046316677283000005000033654587413DEBDIRECTOLEG993         
285511510074940020253833646           P2850662940094786152628000005000033654587413DEBDIRECTOLEG12780       
285511510074940020217802300           P2850662940094786512158000011250033654587413DEBDIRECTOLEG12176       
285511510074940027248287980           P2850662940094794435348000002500033654587413DEBDIRECTOLEG21263       
285511510074940027248287980           P2850662940094794435348000002500033654587413DEBDIRECTOLEG21263       
285511510074940020174514969           P2850662940094786042248000002500033654587413DEBDIRECTOLEG11100       
034511510074940027230827597           P0340255108122855391011000005000033654587413DEBDIRECTOLEG21428       
034511510074940027223919508           P0340255108122868329001000030000033654587413DEBDIRECTOLEG12022       
285511510074940027175795206           P2850662940094756598858000005000033654587413DEBDIRECTOLEG21426       
285511510074940020258255209           P2850662940094747087558000002500033654587413DEBDIRECTOLEG11138       
034511510074940020372540037           P0340255108122882599011000005000033654587413DEBDIRECTOLEG12722       
034511510074940027126799719           P0340255108730038854000000005000033654587413DEBDIRECTOLEG89          
011511510074940027213891478           P0110463330046316780983000004000033654587413DEBDIRECTOLEG11758       
034511510074940027139896450           P0340255108730038474011000002050033654587413DEBDIRECTOLEG293         
285511510074940020310192504           P2850662940094800817478000015000033654587413DEBDIRECTOLEG11632       
034511510074940027213897212           P0340255108122855421004000006000033654587413DEBDIRECTOLEG21433       
285511510074940020139893485           P2850662940094783349038000012500033654587413DEBDIRECTOLEG816         
034511510074940020206793377           P0340255108122869827009000005680033654587413DEBDIRECTOLEG20569       
285511510074940023174512094           P2850662940094798339868000004000033654587413DEBDIRECTOLEG12564       
034511510074940020160538431           P0340255108730047041008000004500033654587413DEBDIRECTOLEG808         
285511510074940020241759254           P2850662940094755922128000005000033654587413DEBDIRECTOLEG11901       
285511510074940020325745011           P2850662940094791312558000002500033654587413DEBDIRECTOLEG13313       
011511510074940027203705005           P0110463330046316778351000005000033654587413DEBDIRECTOLEG908         
285511510074940027307843884           P2850662940094751937418000005000033654587413DEBDIRECTOLEG1120        
285511510074940020213892143           P2850662940094758445978000006000033654587413DEBDIRECTOLEG20216       
285511510074940027282128492           P2850662940094746966168000005000033654587413DEBDIRECTOLEG11087       
011511510074940027222502069           P0110463330046316782347000005000033654587413DEBDIRECTOLEG21463       
285511510074940020339180580           P2850662940094752162808000005000033654587413DEBDIRECTOLEG11672       
285511510074940020137143667           P2850662940094730832688000008720033654587413DEBDIRECTOLEG20606       
285511510074940020107994824           P2850662940094794752298000006300033654587413DEBDIRECTOLEG740         
034511510074940020055169994           P0340255108100511875006000003700033654587413DEBDIRECTOLEG21519       
285511510074940027231642043           P2850662940094781124558000005000033654587413DEBDIRECTOLEG11349       
034511510074940020127834181           P0340255108122870158008000008480033654587413DEBDIRECTOLEG11276       
285511510074940027254025742           P2850662940094779462778000006830033654587413DEBDIRECTOLEG372         
285511510074940023387905189           P2850662940094790982558000005000033654587413DEBDIRECTOLEG12340       
285511510074940020401002589           P2850662940094777213378000005000033654587413DEBDIRECTOLEG11611       
034511510074940020319392123           P0340255108122858378017000005000033654587413DEBDIRECTOLEG11398       
034511510074940020242602065           P0340255108730096106019000004590033654587413DEBDIRECTOLEG11900       
285511510074940020185957374           P2850662940094783541748000010000033654587413DEBDIRECTOLEG1272        
034511510074940020104422730           P0340255108730039665016000005000033654587413DEBDIRECTOLEG1464        
285511510074940020279655460           P2850662940094746099068000008320033654587413DEBDIRECTOLEG11287       
285511510074940027270427532           P2850662940094020480078000005000033654587413DEBDIRECTOLEG832         
034511510074940020137142407           P0340255108730038998010000006340033654587413DEBDIRECTOLEG695         
285511510074940023350746889           P2850662940094757678708000007340033654587413DEBDIRECTOLEG13086       
285511510074940020260196546           P2850662940094793946508000006620033654587413DEBDIRECTOLEG514         
285511510074940020274065223           P2850662940094793483478000003000033654587413DEBDIRECTOLEG11807       
034511510074940020230825044           P0340255108122869973009000024740033654587413DEBDIRECTOLEG1135        
5115100749400           P000002000033654587413DEBDIRECTOLEG            
285511510074940020122254128           P2850662940094794308118000007860033654587413DEBDIRECTOLEG11804       
285511510074940023122255999           P2850662940094797840738000005000033654587413DEBDIRECTOLEG454         
011511510074940027307840478           P0110463330046316807051000002500033654587413DEBDIRECTOLEG12344       
285511510074940020325440849           P2850662940094793480158000008080033654587413DEBDIRECTOLEG11923       
011511510074940027295396186           P0110463330046316805451000005000033654587413DEBDIRECTOLEG11176       
011511510074940020268100300           P0110463330046316711729000005000033654587413DEBDIRECTOLEG21776       
011511510074940027130818175           P0110463330046316761151000006250033654587413DEBDIRECTOLEG11341       
011511510074940020326999688           P0110463330046316727551000010000033654587413DEBDIRECTOLEG11633       
011511510074940020285774218           P0110463330046316716915000005000033654587413DEBDIRECTOLEG494         
285511510074940020231689762           P2850662940094749088368000005000033654587413DEBDIRECTOLEG8443        
285511510074940020142455782           P2850662940094728197788000002000033654587413DEBDIRECTOLEG884         
285511510074940020358176500           P2850662940094790952968000005000033654587413DEBDIRECTOLEG20563       
011511510074940020330342588           P0110463330046317628297000002000033654587413DEBDIRECTOLEG12581       
011511510074940020101853463           P0110463330046316656783000005000033654587413DEBDIRECTOLEG1155        
285511510074940027221225150           P2850662940094798275948000004000033654587413DEBDIRECTOLEG1803        
285511510074940023251155739           P2850662940094782010908000014560033654587413DEBDIRECTOLEG11487       
011511510074940027224952169           P0110463330046316783333000010000033654587413DEBDIRECTOLEG11361       
285511510074940020110010126           P2850662940094786707828000010000033654587413DEBDIRECTOLEG422         
285511510074940027280545061           P2850662940094759671538000005000033654587413DEBDIRECTOLEG11713       
285511510074940027179953027           P2850662940094783013388000005000033654587413DEBDIRECTOLEG747         
285511510074940027183048339           P2850662940094756825068000008080033654587413DEBDIRECTOLEG187         
285511510074940027127114043           P2850662940094792999008000005000033654587413DEBDIRECTOLEG1452        
285511510074940027274071341           P2850662940094788095288000003130033654587413DEBDIRECTOLEG12359       
034511510074940027101487186           P0340255108122855756010000005000033654587413DEBDIRECTOLEG20400       
285511510074940020253833646           P2850662940094786152628000003000033654587413DEBDIRECTOLEG12780       
011511510074940027289326529           P0110463330046316749047000003760033654587413DEBDIRECTOLEG12580       
285511510074940027303918294           P2850662940094795625258000017750033654587413DEBDIRECTOLEG11052       
285511510074940020239976469           P2850662940094784873228000004000033654587413DEBDIRECTOLEG13388       
011511510074940027252569087           P0110463330046316792683000005000033654587413DEBDIRECTOLEG11221       
285511510074940027262479051           P2850662940094757169828000005000033654587413DEBDIRECTOLEG11210       
285511510074940023279653149           P2850662940094800639458000008000033654587413DEBDIRECTOLEG12680       
285511510074940027162977291           P2850662940094786050328000002500033654587413DEBDIRECTOLEG8624        
285511510074940027403214537           P2850662940094796197118000002000033654587413DEBDIRECTOLEG20005       
011511510074940027928100842           P0110463330046316826647000005000033654587413DEBDIRECTOLEG8626        
034511510074940027289325978           P0340255108122869845005000005000033654587413DEBDIRECTOLEG240         
034511510074940020261182042           P0340255108122856468008000005000033654587413DEBDIRECTOLEG21563       
011511510074940020127228494           P0110463330046316668315000005000033654587413DEBDIRECTOLEG622         
034511510074940027225276922           P0340255108122855079012000005000033654587413DEBDIRECTOLEG241         
285511510074940027184935371           P2850662940094783348318000005000033654587413DEBDIRECTOLEG12691       
285511510074940027163927026           P2850662940094783887628000005000033654587413DEBDIRECTOLEG888         
034511510074940020244523480           P0340255108122872946005000002500033654587413DEBDIRECTOLEG12226       
034511510074940020104420088           P0340255108122870033004000001000033654587413DEBDIRECTOLEG21536       
034511510074940027227438776           P0340255108122855433018000004000033654587413DEBDIRECTOLEG1531        
011511510074940020141380495           P0110463330046316674697000010000033654587413DEBDIRECTOLEG696         
285511510074940020142486858           P2850662940094751494588000005000033654587413DEBDIRECTOLEG671         
034511510074940020127834181           P0340255108122870158008000005000033654587413DEBDIRECTOLEG11276       
034511510074940027173367150           P0340255108122869848004000005000033654587413DEBDIRECTOLEG21566       
285511510074940020115812646           P2850662940094024488658000005000033654587413DEBDIRECTOLEG11378       
285511510074940020163927536           P2850662940094756621198000003585033654587413DEBDIRECTOLEG12551       
285511510074940020239978828           P2850662940094777552158000005010033654587413DEBDIRECTOLEG21695       
285511510074940023269515589           P2850662940094755281658000005000033654587413DEBDIRECTOLEG12500       
285511510074940020239978836           P2850662940094745953558000005630033654587413DEBDIRECTOLEG20607       
285511510074940027332801037           P2850662940094758308228000005025033654587413DEBDIRECTOLEG12530       
285511510074940020147600000           P2850662940094784446608000003100033654587413DEBDIRECTOLEG108         
034511510074940027926964408           P0340255108122870098005000011150033654587413DEBDIRECTOLEG660         
285511510074940027267029135           P2850662940094749666928000005000033654587413DEBDIRECTOLEG1839        
285511510074940027927194215           P2850662940094783515808000012800033654587413DEBDIRECTOLEG20890       
011511510074940027282367659           P0110463330046316803165000003430033654587413DEBDIRECTOLEG11551       
285511510074940023280000124           P2850662940094755055179000007050033654587413DEBDIRECTOLEG21657       
034511510074940020234451198           P0340255108122869935001000005710033654587413DEBDIRECTOLEG11194       
285511510074940024240952399           P2850662940094818454678000006580033654587413DEBDIRECTOLEG8455        
034511510074940023924527404           P0340255108122870206004000005000033654587413DEBDIRECTOLEG21441       
285511510074940020139893485           P2850662940094783349038000005740033654587413DEBDIRECTOLEG816         
285511510074940020160539640           P2850662940094604139518000005000033654587413DEBDIRECTOLEG694         
285511510074940020325745011           P2850662940094791312558000003000033654587413DEBDIRECTOLEG13313       
285511510074940020340197543           P2850662940094782013358000005000033654587413DEBDIRECTOLEG11616       
011511510074940020326999688           P0110463330046316727551000006720033654587413DEBDIRECTOLEG11633       
285511510074940020244696261           P2850662940094778988378000005000033654587413DEBDIRECTOLEG20583       
285511510074940027350772826           P2850662940094024484458000005000033654587413DEBDIRECTOLEG21876       
285511510074940020303920820           P2850662940094759148128000003000033654587413DEBDIRECTOLEG12417       
285511510074940020358173366           P2850662940094757677408000015000033654587413DEBDIRECTOLEG11876       
285511510074940023179952254           P2850662940094024485758000005000033654587413DEBDIRECTOLEG11388       
285511510074940020231689762           P2850662940094749088368000003500033654587413DEBDIRECTOLEG8443        
011511510074940020184218446           P0110463330046316688379000005000033654587413DEBDIRECTOLEG9           
285511510074940020147599057           P2850662940094780333124000003000033654587413DEBDIRECTOLEG339         
034511510074940020078710196           P0340255108730039915012000002940033654587413DEBDIRECTOLEG499         
285511510074940020082136224           P2850662940094795820998000003000033654587413DEBDIRECTOLEG710         
034511510074940020109857573           P0340255108730038962019000007750033654587413DEBDIRECTOLEG116         
285511510074940020325742810           P2850662940094783871858000004000033654587413DEBDIRECTOLEG11634       
285511510074940020137143667           P2850662940094730832688000001000033654587413DEBDIRECTOLEG20606       
285511510074940020315155585           P2850662940094797751148000004000033654587413DEBDIRECTOLEG516         
285511510074940020346675552           P2850662940094820531408000001500033654587413DEBDIRECTOLEG11920       
285511510074940020084306453           P2850662940094014703158000002500033654587413DEBDIRECTOLEG794         
285511510074940023249120499           P2850662940094746185178000002500033654587413DEBDIRECTOLEG12303       
011511510074940023272554544           P0110463330046316747751000004000033654587413DEBDIRECTOLEG12053       
034511510074940020142778573           P0340255108122853033012000002500033654587413DEBDIRECTOLEG636         
011511510074940020312995388           P0110463330046316723283000001500033654587413DEBDIRECTOLEG12326       
285511510074940020146885390           P2850662940094795870658000003000033654587413DEBDIRECTOLEG823         
034511510074940027274890601           P0340255108122870132008000002500033654587413DEBDIRECTOLEG21493       
285511510074940020304795876           P2850662940094780837848000002500033654587413DEBDIRECTOLEG12633       
011511510074940027261719296           P0110463330046316796647000010000033654587413DEBDIRECTOLEG21564       
034511510074940027126799662           P0340255108730038498015000005000033654587413DEBDIRECTOLEG593         
285511510074940027244695103           P2850662940094791696788000005000033654587413DEBDIRECTOLEG395         
