285511511064940020142455782           P2850662940094728197788000004000033654587413DEBDIRECTOLEG884         
285511511064940020109859959           P2850662940094061317748000002500033654587413DEBDIRECTOLEG755         
011511511064940020147597740           P0110463330046316677283000005000033654587413DEBDIRECTOLEG993         
285511511064940020253833646           P2850662940094786152628000007500033654587413DEBDIRECTOLEG12780       
285511511064940020217802300           P2850662940094786512158000003750033654587413DEBDIRECTOLEG12176       
285511511064940027248287980           P2850662940094794435348000002500033654587413DEBDIRECTOLEG21263       
285511511064940027248287980           P2850662940094794435348000002500033654587413DEBDIRECTOLEG21263       
285511511064940020174514969           P2850662940094786042248000002500033654587413DEBDIRECTOLEG11100       
285511511064940027175795206           P2850662940094756598858000005000033654587413DEBDIRECTOLEG21426       
285511511064940020258255209           P2850662940094747087558000002500033654587413DEBDIRECTOLEG11138       
034511511064940027230827597           P0340255108122855391011000005000033654587413DEBDIRECTOLEG21428       
034511511064940020372540037           P0340255108122882599011000010000033654587413DEBDIRECTOLEG12722       
034511511064940027126799719           P0340255108730038854000000005000033654587413DEBDIRECTOLEG89          
034511511064940027139896450           P0340255108730038474011000002050033654587413DEBDIRECTOLEG293         
285511511064940020310192504           P2850662940094800817478000020000033654587413DEBDIRECTOLEG11632       
034511511064940027213897212           P0340255108122855421004000006000033654587413DEBDIRECTOLEG21433       
034511511064940020206793377           P0340255108122869827009000005680033654587413DEBDIRECTOLEG20569       
285511511064940023174512094           P2850662940094798339868000006000033654587413DEBDIRECTOLEG12564       
034511511064940020160538431           P0340255108730047041008000004500033654587413DEBDIRECTOLEG808         
285511511064940020241759254           P2850662940094755922128000010000033654587413DEBDIRECTOLEG11901       
011511511064940027203705005           P0110463330046316778351000005000033654587413DEBDIRECTOLEG908         
285511511064940027307843884           P2850662940094751937418000005000033654587413DEBDIRECTOLEG1120        
285511511064940020213892143           P2850662940094758445978000006000033654587413DEBDIRECTOLEG20216       
285511511064940027282128492           P2850662940094746966168000005000033654587413DEBDIRECTOLEG11087       
011511511064940027222502069           P0110463330046316782347000005000033654587413DEBDIRECTOLEG21463       
285511511064940020107994824           P2850662940094794752298000009450033654587413DEBDIRECTOLEG740         
034511511064940020055169994           P0340255108100511875006000003700033654587413DEBDIRECTOLEG21519       
285511511064940027231642043           P2850662940094781124558000005000033654587413DEBDIRECTOLEG11349       
034511511064940020127834181           P0340255108122870158008000012720033654587413DEBDIRECTOLEG11276       
285511511064940027254025742           P2850662940094779462778000013660033654587413DEBDIRECTOLEG372         
285511511064940023387905189           P2850662940094790982558000010000033654587413DEBDIRECTOLEG12340       
285511511064940020401002589           P2850662940094777213378000005000033654587413DEBDIRECTOLEG11611       
034511511064940020319392123           P0340255108122858378017000005000033654587413DEBDIRECTOLEG11398       
034511511064940020242602065           P0340255108730096106019000004590033654587413DEBDIRECTOLEG11900       
034511511064940020104422730           P0340255108730039665016000005000033654587413DEBDIRECTOLEG1464        
285511511064940020279655460           P2850662940094746099068000012480033654587413DEBDIRECTOLEG11287       
285511511064940027270427532           P2850662940094020480078000005000033654587413DEBDIRECTOLEG832         
034511511064940020137142407           P0340255108730038998010000006340033654587413DEBDIRECTOLEG695         
285511511064940023350746889           P2850662940094757678708000014680033654587413DEBDIRECTOLEG13086       
285511511064940020274065223           P2850662940094793483478000003000033654587413DEBDIRECTOLEG11807       
5115110649400           P000002000033654587413DEBDIRECTOLEG            
285511511064940020122254128           P2850662940094794308118000011790033654587413DEBDIRECTOLEG11804       
285511511064940023122255999           P2850662940094797840738000010000033654587413DEBDIRECTOLEG454         
011511511064940027307840478           P0110463330046316807051000002500033654587413DEBDIRECTOLEG12344       
285511511064940020325440849           P2850662940094793480158000004040033654587413DEBDIRECTOLEG11923       
011511511064940027295396186           P0110463330046316805451000005000033654587413DEBDIRECTOLEG11176       
011511511064940020268100300           P0110463330046316711729000005000033654587413DEBDIRECTOLEG21776       
011511511064940027130818175           P0110463330046316761151000006250033654587413DEBDIRECTOLEG11341       
011511511064940020326999688           P0110463330046316727551000005000033654587413DEBDIRECTOLEG11633       
011511511064940020285774218           P0110463330046316716915000005000033654587413DEBDIRECTOLEG494         
285511511064940020231689762           P2850662940094749088368000010000033654587413DEBDIRECTOLEG8443        
285511511064940020142455782           P2850662940094728197788000004000033654587413DEBDIRECTOLEG884         
285511511064940020358176500           P2850662940094790952968000007500033654587413DEBDIRECTOLEG20563       
011511511064940020330342588           P0110463330046317628297000004000033654587413DEBDIRECTOLEG12581       
011511511064940020101853463           P0110463330046316656783000005000033654587413DEBDIRECTOLEG1155        
285511511064940027221225150           P2850662940094798275948000004000033654587413DEBDIRECTOLEG1803        
011511511064940027224952169           P0110463330046316783333000015000033654587413DEBDIRECTOLEG11361       
285511511064940020110010126           P2850662940094786707828000005000033654587413DEBDIRECTOLEG422         
285511511064940027280545061           P2850662940094759671538000005000033654587413DEBDIRECTOLEG11713       
285511511064940027179953027           P2850662940094783013388000007500033654587413DEBDIRECTOLEG747         
285511511064940027183048339           P2850662940094756825068000012120033654587413DEBDIRECTOLEG187         
285511511064940027127114043           P2850662940094792999008000005000033654587413DEBDIRECTOLEG1452        
285511511064940027274071341           P2850662940094788095288000003130033654587413DEBDIRECTOLEG12359       
034511511064940027101487186           P0340255108122855756010000005000033654587413DEBDIRECTOLEG20400       
011511511064940027289326529           P0110463330046316749047000003760033654587413DEBDIRECTOLEG12580       
285511511064940027303918294           P2850662940094795625258000017750033654587413DEBDIRECTOLEG11052       
285511511064940020239976469           P2850662940094784873228000006000033654587413DEBDIRECTOLEG13388       
011511511064940027252569087           P0110463330046316792683000005000033654587413DEBDIRECTOLEG11221       
285511511064940027262479051           P2850662940094757169828000007500033654587413DEBDIRECTOLEG11210       
285511511064940027162977291           P2850662940094786050328000002500033654587413DEBDIRECTOLEG8624        
285511511064940027403214537           P2850662940094796197118000002000033654587413DEBDIRECTOLEG20005       
011511511064940027928100842           P0110463330046316826647000005000033654587413DEBDIRECTOLEG8626        
034511511064940027289325978           P0340255108122869845005000005000033654587413DEBDIRECTOLEG240         
034511511064940020261182042           P0340255108122856468008000005000033654587413DEBDIRECTOLEG21563       
011511511064940020127228494           P0110463330046316668315000005000033654587413DEBDIRECTOLEG622         
034511511064940027225276922           P0340255108122855079012000005000033654587413DEBDIRECTOLEG241         
285511511064940027184935371           P2850662940094783348318000005000033654587413DEBDIRECTOLEG12691       
285511511064940027163927026           P2850662940094783887628000005000033654587413DEBDIRECTOLEG888         
034511511064940020244523480           P0340255108122872946005000002500033654587413DEBDIRECTOLEG12226       
034511511064940027227438776           P0340255108122855433018000004000033654587413DEBDIRECTOLEG1531        
011511511064940020141380495           P0110463330046316674697000020000033654587413DEBDIRECTOLEG696         
285511511064940020142486858           P2850662940094751494588000010000033654587413DEBDIRECTOLEG671         
034511511064940020127834181           P0340255108122870158008000010000033654587413DEBDIRECTOLEG11276       
034511511064940027173367150           P0340255108122869848004000005000033654587413DEBDIRECTOLEG21566       
285511511064940020163927536           P2850662940094756621198000007170033654587413DEBDIRECTOLEG12551       
011511511064940020106756113           P0110463330046316658383000005000033654587413DEBDIRECTOLEG20118       
285511511064940020239978828           P2850662940094777552158000010020033654587413DEBDIRECTOLEG21695       
285511511064940023269515589           P2850662940094755281658000010000033654587413DEBDIRECTOLEG12500       
285511511064940020239978836           P2850662940094745953558000005630033654587413DEBDIRECTOLEG20607       
285511511064940027332801037           P2850662940094758308228000010050033654587413DEBDIRECTOLEG12530       
285511511064940020147600000           P2850662940094784446608000006200033654587413DEBDIRECTOLEG108         
034511511064940027926964408           P0340255108122870098005000011150033654587413DEBDIRECTOLEG660         
285511511064940027267029135           P2850662940094749666928000010000033654587413DEBDIRECTOLEG1839        
285511511064940027927194215           P2850662940094783515808000012800033654587413DEBDIRECTOLEG20890       
011511511064940027282367659           P0110463330046316803165000003430033654587413DEBDIRECTOLEG11551       
034511511064940020234451198           P0340255108122869935001000005710033654587413DEBDIRECTOLEG11194       
285511511064940024240952399           P2850662940094818454678000006580033654587413DEBDIRECTOLEG8455        
034511511064940023924527404           P0340255108122870206004000005000033654587413DEBDIRECTOLEG21441       
285511511064940020139893485           P2850662940094783349038000005740033654587413DEBDIRECTOLEG816         
285511511064940020160539640           P2850662940094604139518000005000033654587413DEBDIRECTOLEG694         
285511511064940020325745011           P2850662940094791312558000003000033654587413DEBDIRECTOLEG13313       
285511511064940020340197543           P2850662940094782013358000005000033654587413DEBDIRECTOLEG11616       
011511511064940020326999688           P0110463330046316727551000013440033654587413DEBDIRECTOLEG11633       
285511511064940020244696261           P2850662940094778988378000005000033654587413DEBDIRECTOLEG20583       
285511511064940027350772826           P2850662940094024484458000005000033654587413DEBDIRECTOLEG21876       
285511511064940020303920820           P2850662940094759148128000006000033654587413DEBDIRECTOLEG12417       
285511511064940023179952254           P2850662940094024485758000005000033654587413DEBDIRECTOLEG11388       
285511511064940020231689762           P2850662940094749088368000007000033654587413DEBDIRECTOLEG8443        
011511511064940020184218446           P0110463330046316688379000005000033654587413DEBDIRECTOLEG9           
034511511064940020078710196           P0340255108730039915012000002940033654587413DEBDIRECTOLEG499         
034511511064940020109857573           P0340255108730038962019000007750033654587413DEBDIRECTOLEG116         
285511511064940020325742810           P2850662940094783871858000008000033654587413DEBDIRECTOLEG11634       
285511511064940020346675552           P2850662940094820531408000001500033654587413DEBDIRECTOLEG11920       
285511511064940020084306453           P2850662940094014703158000002500033654587413DEBDIRECTOLEG794         
285511511064940023249120499           P2850662940094746185178000005000033654587413DEBDIRECTOLEG12303       
011511511064940023272554544           P0110463330046316747751000004000033654587413DEBDIRECTOLEG12053       
034511511064940020142778573           P0340255108122853033012000002500033654587413DEBDIRECTOLEG636         
011511511064940020312995388           P0110463330046316723283000003000033654587413DEBDIRECTOLEG12326       
034511511064940027274890601           P0340255108122870132008000002500033654587413DEBDIRECTOLEG21493       
285511511064940020304795876           P2850662940094780837848000005000033654587413DEBDIRECTOLEG12633       
034511511064940027126799662           P0340255108730038498015000005000033654587413DEBDIRECTOLEG593         
285511511064940027244695103           P2850662940094791696788000005000033654587413DEBDIRECTOLEG395         
285511511064940024301342922           P2850662940094017229198000005000033654587413DEBDIRECTOLEG1138        
285511511064940020336581576           P2850662940094757839398000005000033654587413DEBDIRECTOLEG11557       
034511511064940020266457678           P0340255108730039844015000005800033654587413DEBDIRECTOLEG20598       
285511511064940027247766397           P2850662930094109264721000005000033654587413DEBDIRECTOLEG228         
011511511064940027203437477           P0110463330046316778047000005000033654587413DEBDIRECTOLEG21527       
285511511064940020295839296           P2850662940094768382658000007500033654587413DEBDIRECTOLEG12686       
034511511064940027209961984           P0340255108122855400016000005000033654587413DEBDIRECTOLEG8492        
011511511064940027213891478           P0110463330046316780983000002750033654587413DEBDIRECTOLEG11758       
011511511064940023126797389           P0110463330046316736979000004260033654587413DEBDIRECTOLEG23          
285511511064940020206790432           P2850662940094813347018000005000033654587413DEBDIRECTOLEG21629       
034511511064940027224951790           P0340255108122870183006000005080033654587413DEBDIRECTOLEG11627       
285511511064940020339180580           P2850662940094752162808000007440033654587413DEBDIRECTOLEG11672       
011511511064940020308750303           P0110463330046317178365000004890033654587413DEBDIRECTOLEG13733       
285511511064940020160537885           P2850662940094786944858000005000033654587413DEBDIRECTOLEG619         
285511511064940020160537885           P2850662940094786944858000005000033654587413DEBDIRECTOLEG619         
285511511064940023179952254           P2850662940094024485758000002730033654587413DEBDIRECTOLEG11388       
285511511064940020234450213           P2850662940094794564048000005000033654587413DEBDIRECTOLEG12652       
011511511064940020358185143           P0110463330046317180829000004870033654587413DEBDIRECTOLEG13714       
034511511064940027179670807           P0340255108122870059004000004930033654587413DEBDIRECTOLEG21646       
285511511064940020325745011           P2850662940094791312558000002500033654587413DEBDIRECTOLEG13313       
034511511064940020201221375           P0340255108730038634011000005140033654587413DEBDIRECTOLEG608         
034511511064940027929471763           P0340255108122870203005000005000033654587413DEBDIRECTOLEG21440       
034511511064940020261182042           P0340255108122856468008000005470033654587413DEBDIRECTOLEG21563       
034511511064940020224951109           P0340255108730038588011000004570033654587413DEBDIRECTOLEG1171        
285511511064940020231689762           P2850662940094749088368000003000033654587413DEBDIRECTOLEG8443        
011511511064940020184218446           P0110463330046316688379000004250033654587413DEBDIRECTOLEG9           
285511511064940020145193487           P2850662940094793618838000005000033654587413DEBDIRECTOLEG582         
285511511064940027274071341           P2850662940094788095288000004000033654587413DEBDIRECTOLEG12359       
285511511064940020325745011           P2850662940094791312558000002000033654587413DEBDIRECTOLEG13313       
011511511064940020106755206           P0110463330046316658215000009830033654587413DEBDIRECTOLEG3           
011511511064940027224781046           P0110463330046316782729000009370033654587413DEBDIRECTOLEG11047       
034511511064940020104420088           P0340255108122870033004000001000033654587413DEBDIRECTOLEG21536       
285511511064940023280000124           P2850662940094750551798000007050033654587413DEBDIRECTOLEG21657       
