011511512044940020147597740           P0110463330046316677283000005000033654587413DEBDIRECTOLEG993         
285511512044940020253833646           P2850662940094786152628000010000033654587413DEBDIRECTOLEG12780       
285511512044940027248287980           P2850662940094794435348000002500033654587413DEBDIRECTOLEG21263       
285511512044940027248287980           P2850662940094794435348000002500033654587413DEBDIRECTOLEG21263       
034511512044940027230827597           P0340255108122855391011000005000033654587413DEBDIRECTOLEG21428       
034511512044940027126799719           P0340255108730038854000000005000033654587413DEBDIRECTOLEG89          
034511512044940020206793377           P0340255108122869827009000005680033654587413DEBDIRECTOLEG20569       
285511512044940023174512094           P2850662940094798339868000008000033654587413DEBDIRECTOLEG12564       
034511512044940020160538431           P0340255108730047041008000004500033654587413DEBDIRECTOLEG808         
285511512044940020241759254           P2850662940094755922128000015000033654587413DEBDIRECTOLEG11901       
011511512044940027203705005           P0110463330046316778351000005000033654587413DEBDIRECTOLEG908         
285511512044940027307843884           P2850662940094751937418000005000033654587413DEBDIRECTOLEG1120        
285511512044940020213892143           P2850662940094758445978000006000033654587413DEBDIRECTOLEG20216       
285511512044940027282128492           P2850662940094746966168000005000033654587413DEBDIRECTOLEG11087       
011511512044940027222502069           P0110463330046316782347000005000033654587413DEBDIRECTOLEG21463       
034511512044940020055169994           P0340255108100511875006000003700033654587413DEBDIRECTOLEG21519       
285511512044940027231642043           P2850662940094781124558000005000033654587413DEBDIRECTOLEG11349       
034511512044940020127834181           P0340255108122870158008000016960033654587413DEBDIRECTOLEG11276       
285511512044940027254025742           P2850662940094779462778000020490033654587413DEBDIRECTOLEG372         
285511512044940020401002589           P2850662940094777213378000010000033654587413DEBDIRECTOLEG11611       
034511512044940020319392123           P0340255108122858378017000005000033654587413DEBDIRECTOLEG11398       
034511512044940020242602065           P0340255108730096106019000004590033654587413DEBDIRECTOLEG11900       
034511512044940020104422730           P0340255108730039665016000005000033654587413DEBDIRECTOLEG1464        
285511512044940020279655460           P2850662940094746099068000016640033654587413DEBDIRECTOLEG11287       
285511512044940027270427532           P2850662940094020480078000005000033654587413DEBDIRECTOLEG832         
034511512044940020137142407           P0340255108730038998010000006340033654587413DEBDIRECTOLEG695         
285511512044940023350746889           P2850662940094757678708000022020033654587413DEBDIRECTOLEG13086       
285511512044940020274065223           P2850662940094793483478000006000033654587413DEBDIRECTOLEG11807       
5115120449400           P000002000033654587413DEBDIRECTOLEG            
285511512044940020122254128           P2850662940094794308118000015720033654587413DEBDIRECTOLEG11804       
285511512044940023122255999           P2850662940094797840738000015000033654587413DEBDIRECTOLEG454         
034511512044940020372540037           P0340255108122882599011000015000033654587413DEBDIRECTOLEG12722       
011511512044940027307840478           P0110463330046316807051000002500033654587413DEBDIRECTOLEG12344       
011511512044940027295396186           P0110463330046316805451000005000033654587413DEBDIRECTOLEG11176       
011511512044940020268100300           P0110463330046316711729000005000033654587413DEBDIRECTOLEG21776       
011511512044940027130818175           P0110463330046316761151000006250033654587413DEBDIRECTOLEG11341       
011511512044940020326999688           P0110463330046316727551000005000033654587413DEBDIRECTOLEG11633       
011511512044940020285774218           P0110463330046316716915000005000033654587413DEBDIRECTOLEG494         
285511512044940020231689762           P2850662940094749088368000015000033654587413DEBDIRECTOLEG8443        
285511512044940020358176500           P2850662940094790952968000010000033654587413DEBDIRECTOLEG20563       
011511512044940020101853463           P0110463330046316656783000010000033654587413DEBDIRECTOLEG1155        
285511512044940027221225150           P2850662940094798275948000004000033654587413DEBDIRECTOLEG1803        
011511512044940027224952169           P0110463330046316783333000005000033654587413DEBDIRECTOLEG11361       
285511512044940027280545061           P2850662940094759671538000010000033654587413DEBDIRECTOLEG11713       
285511512044940027179953027           P2850662940094783013388000010000033654587413DEBDIRECTOLEG747         
285511512044940027183048339           P2850662940094756825068000016160033654587413DEBDIRECTOLEG187         
285511512044940027127114043           P2850662940094792999008000005000033654587413DEBDIRECTOLEG1452        
285511512044940027274071341           P2850662940094788095288000003130033654587413DEBDIRECTOLEG12359       
034511512044940027101487186           P0340255108122855756010000005000033654587413DEBDIRECTOLEG20400       
011511512044940027289326529           P0110463330046316749047000003760033654587413DEBDIRECTOLEG12580       
285511512044940027303918294           P2850662940094795625258000017750033654587413DEBDIRECTOLEG11052       
285511512044940020239976469           P2850662940094784873228000008000033654587413DEBDIRECTOLEG13388       
011511512044940027252569087           P0110463330046316792683000005000033654587413DEBDIRECTOLEG11221       
285511512044940027262479051           P2850662940094757169828000010000033654587413DEBDIRECTOLEG11210       
285511512044940027162977291           P2850662940094786050328000002500033654587413DEBDIRECTOLEG8624        
285511512044940027403214537           P2850662940094796197118000004000033654587413DEBDIRECTOLEG20005       
011511512044940027928100842           P0110463330046316826647000005000033654587413DEBDIRECTOLEG8626        
034511512044940027289325978           P0340255108122869845005000005000033654587413DEBDIRECTOLEG240         
034511512044940020261182042           P0340255108122856468008000005000033654587413DEBDIRECTOLEG21563       
011511512044940020127228494           P0110463330046316668315000005000033654587413DEBDIRECTOLEG622         
034511512044940027225276922           P0340255108122855079012000005000033654587413DEBDIRECTOLEG241         
285511512044940027184935371           P2850662940094783348318000010000033654587413DEBDIRECTOLEG12691       
285511512044940027163927026           P2850662940094783887628000010000033654587413DEBDIRECTOLEG888         
034511512044940020244523480           P0340255108122872946005000002500033654587413DEBDIRECTOLEG12226       
011511512044940020141380495           P0110463330046316674697000030000033654587413DEBDIRECTOLEG696         
034511512044940020127834181           P0340255108122870158008000015000033654587413DEBDIRECTOLEG11276       
034511512044940027173367150           P0340255108122869848004000005000033654587413DEBDIRECTOLEG21566       
285511512044940020163927536           P2850662940094756621198000010755033654587413DEBDIRECTOLEG12551       
285511512044940020239978828           P2850662940094777552158000015030033654587413DEBDIRECTOLEG21695       
285511512044940023269515589           P2850662940094755281658000015000033654587413DEBDIRECTOLEG12500       
285511512044940020239978836           P2850662940094745953558000005630033654587413DEBDIRECTOLEG20607       
285511512044940020147600000           P2850662940094784446608000009300033654587413DEBDIRECTOLEG108         
034511512044940027926964408           P0340255108122870098005000011150033654587413DEBDIRECTOLEG660         
285511512044940027267029135           P2850662940094749666928000015000033654587413DEBDIRECTOLEG1839        
285511512044940027927194215           P2850662940094783515808000012800033654587413DEBDIRECTOLEG20890       
011511512044940027282367659           P0110463330046316803165000003430033654587413DEBDIRECTOLEG11551       
285511512044940024240952399           P2850662940094818454678000006580033654587413DEBDIRECTOLEG8455        
034511512044940023924527404           P0340255108122870206004000005000033654587413DEBDIRECTOLEG21441       
285511512044940020139893485           P2850662940094783349038000005740033654587413DEBDIRECTOLEG816         
285511512044940020160539640           P2850662940094604139518000005000033654587413DEBDIRECTOLEG694         
285511512044940020340197543           P2850662940094782013358000010000033654587413DEBDIRECTOLEG11616       
285511512044940020244696261           P2850662940094778988378000010000033654587413DEBDIRECTOLEG20583       
285511512044940027350772826           P2850662940094024484458000005000033654587413DEBDIRECTOLEG21876       
285511512044940023179952254           P2850662940094024485758000005000033654587413DEBDIRECTOLEG11388       
011511512044940020184218446           P0110463330046316688379000005000033654587413DEBDIRECTOLEG9           
285511512044940020304795876           P2850662940094780837848000007500033654587413DEBDIRECTOLEG12633       
034511512044940027126799662           P0340255108730038498015000005000033654587413DEBDIRECTOLEG593         
285511512044940027244695103           P2850662940094791696788000005000033654587413DEBDIRECTOLEG395         
285511512044940024301342922           P2850662940094017229198000005000033654587413DEBDIRECTOLEG1138        
285511512044940027332801037           P2850662940094758308228000015075033654587413DEBDIRECTOLEG12530       
285511512044940020336581576           P2850662940094757839398000005000033654587413DEBDIRECTOLEG11557       
034511512044940020266457678           P0340255108730039844015000011600033654587413DEBDIRECTOLEG20598       
285511512044940027247766397           P2850662930094109264721000010000033654587413DEBDIRECTOLEG228         
011511512044940027203437477           P0110463330046316778047000005000033654587413DEBDIRECTOLEG21527       
285511512044940020295839296           P2850662940094768382658000007500033654587413DEBDIRECTOLEG12686       
034511512044940027209961984           P0340255108122855400016000010000033654587413DEBDIRECTOLEG8492        
011511512044940027213891478           P0110463330046316780983000002750033654587413DEBDIRECTOLEG11758       
011511512044940023126797389           P0110463330046316736979000004260033654587413DEBDIRECTOLEG23          
285511512044940020206790432           P2850662940094813347018000005000033654587413DEBDIRECTOLEG21629       
034511512044940027224951790           P0340255108122870183006000005080033654587413DEBDIRECTOLEG11627       
285511512044940020339180580           P2850662940094752162808000014880033654587413DEBDIRECTOLEG11672       
011511512044940020308750303           P0110463330046317178365000004890033654587413DEBDIRECTOLEG13733       
285511512044940020160537885           P2850662940094786944858000005000033654587413DEBDIRECTOLEG619         
285511512044940020160537885           P2850662940094786944858000005000033654587413DEBDIRECTOLEG619         
285511512044940023179952254           P2850662940094024485758000002730033654587413DEBDIRECTOLEG11388       
285511512044940020234450213           P2850662940094794564048000010000033654587413DEBDIRECTOLEG12652       
011511512044940020358185143           P0110463330046317180829000004870033654587413DEBDIRECTOLEG13714       
034511512044940027179670807           P0340255108122870059004000004930033654587413DEBDIRECTOLEG21646       
285511512044940020325745011           P2850662940094791312558000002500033654587413DEBDIRECTOLEG13313       
034511512044940020201221375           P0340255108730038634011000005140033654587413DEBDIRECTOLEG608         
034511512044940027929471763           P0340255108122870203005000005000033654587413DEBDIRECTOLEG21440       
034511512044940020261182042           P0340255108122856468008000010940033654587413DEBDIRECTOLEG21563       
034511512044940020224951109           P0340255108730038588011000004570033654587413DEBDIRECTOLEG1171        
011511512044940020184218446           P0110463330046316688379000004250033654587413DEBDIRECTOLEG9           
285511512044940020145193487           P2850662940094793618838000010000033654587413DEBDIRECTOLEG582         
285511512044940027274071341           P2850662940094788095288000004000033654587413DEBDIRECTOLEG12359       
011511512044940020106755206           P0110463330046316658215000009830033654587413DEBDIRECTOLEG3           
011511512044940027224781046           P0110463330046316782729000009370033654587413DEBDIRECTOLEG11047       
285511512044940023280000124           P2850662940094750551798000014100033654587413DEBDIRECTOLEG21657       
285511512044940020924528177           P2850662940094020309148000008680033654587413DEBDIRECTOLEG684         
011511512044940020312995388           P0110463330046316723283000001500033654587413DEBDIRECTOLEG12326       
285511512044940020258255209           P2850662940094747087558000004000033654587413DEBDIRECTOLEG11138       
285511512044940020148367699           P2850662940094785968778000004000033654587413DEBDIRECTOLEG413         
034511512044940023113456639           P0340255108730038861019000005000033654587413DEBDIRECTOLEG982         
285511512044940027135527764           P2850662940094012697468000010000033654587413DEBDIRECTOLEG1514        
285511512044940020325745011           P2850662940094791312558000001500033654587413DEBDIRECTOLEG13313       
285511512044940023238311349           P2850662940094790388998000005930033654587413DEBDIRECTOLEG11596       
034511512044940027186340316           P0340255108122869997003000010480033654587413DEBDIRECTOLEG1564        
285511512044940027927993312           P2850662940094800891638000005000033654587413DEBDIRECTOLEG21491       
285511512044940020295837501           P2850662940094054351168000006000033654587413DEBDIRECTOLEG11161       
285511512044940020217802300           P2850662940094786512158000005550033654587413DEBDIRECTOLEG12176       
011511512044940020922348813           P0110463330046316821147000005050033654587413DEBDIRECTOLEG10864       
285511512044940020185957374           P2850662940094783541748000008930033654587413DEBDIRECTOLEG1272        
285511512044940020274065150           P2850662940094750550658000005540033654587413DEBDIRECTOLEG11869       
285511512044940020303920820           P2850662940094759148128000004740033654587413DEBDIRECTOLEG12417       
034511512044940023147599099           P0340255108730038636017000010000033654587413DEBDIRECTOLEG890         
285511512044940020082136224           P2850662940094795820998000020000033654587413DEBDIRECTOLEG710         
011511512044940020145197318           P0110463330046316676747000008000033654587413DEBDIRECTOLEG679         
034511512044940027188938189           P0340255108122870041009000005250033654587413DEBDIRECTOLEG11103       
011511512044940020325746352           P0110463330046316727001000008000033654587413DEBDIRECTOLEG12413       
011511512044940027127152840           P0110463330046316760233000005250033654587413DEBDIRECTOLEG11248       
034511512044940027126799719           P0340255108730038854000000007000033654587413DEBDIRECTOLEG89          
285511512044940027248287980           P2850662940094794435348000008000033654587413DEBDIRECTOLEG21263       
285511512044940023270042724           P2850662940094751720528000008000033654587413DEBDIRECTOLEG11244       
285511512044940023203705204           P2850662940094831615308000008000033654587413DEBDIRECTOLEG11708       
285511512044940020106756849           P2850662940094013765618000008000033654587413DEBDIRECTOLEG11233       
034511512044940020135636038           P0340255108122875059009000008000033654587413DEBDIRECTOLEG12366       
034511512044940020217802939           P0340255108730038612020000008000033654587413DEBDIRECTOLEG1217        
285511512044940027244695103           P2850662940094791696788000008000033654587413DEBDIRECTOLEG395         
285511512044940020221225172           P2850662940094785519938000005250033654587413DEBDIRECTOLEG284         
011511512044940020248287013           P0110463330046316705515000005250033654587413DEBDIRECTOLEG162         
034511512044940020254022390           P0340255108122870099008000008000033654587413DEBDIRECTOLEG11999       
285511512044940020346675552           P2850662940094820531408000005840033654587413DEBDIRECTOLEG11920       
011511512044940027274350011           P0110463330046316799783000005250033654587413DEBDIRECTOLEG1042        
034511512044940020213882199           P0340255108122855372005000008000033654587413DEBDIRECTOLEG11183       
011511512044940027260196370           P0110463330046317429647000005250033654587413DEBDIRECTOLEG554         
285511512044940020358180028           P2850662940094845987318000002750033654587413DEBDIRECTOLEG20012       
285511512044940020113457458           P2850662940094745275908000008000033654587413DEBDIRECTOLEG300         
285511512044940020232868784           P2850662940094785520598000005250033654587413DEBDIRECTOLEG12163       
011511512044940027237847704           P0110463330046316787601000007000033654587413DEBDIRECTOLEG427         
285511512044940020351687844           P2850662940094836401078000005250033654587413DEBDIRECTOLEG12623       
034511512044940027142754520           P0340255108122869980001000008000033654587413DEBDIRECTOLEG11043       
285511512044940020319391542           P2850662940094747733178000007000033654587413DEBDIRECTOLEG12318       
034511512044940020163920442           P0340255108730038885013000008000033654587413DEBDIRECTOLEG1242        
285511512044940020325745011           P2850662940094791312558000002000033654587413DEBDIRECTOLEG13313       
285511512044940027221226564           P2850662940094752102628000008000033654587413DEBDIRECTOLEG860         
285511512044940027336584936           P2850662940094774574098000008000033654587413DEBDIRECTOLEG12806       
285511512044940020251156663           P2850662940094754066818000004000033654587413DEBDIRECTOLEG11760       
285511512044940020201224641           P2850662940094071366408000007000033654587413DEBDIRECTOLEG21754       
034511512044940027254026749           P0340255108122870153003000008000033654587413DEBDIRECTOLEG1806        
011511512044940027282366849           P0110463330046316802933000008000033654587413DEBDIRECTOLEG13293       
011511512044940027346669212           P0110463330046317044783000008000033654587413DEBDIRECTOLEG13693       
011511512044940027188530651           P0110463330046316776997000005250033654587413DEBDIRECTOLEG13617       
034511512044940027274890601           P0340255108122870132008000003000033654587413DEBDIRECTOLEG21493       
285511512044940020257487270           P2850662940094063958868000003000033654587413DEBDIRECTOLEG11286       
011511512044940020285777993           P0110463330046316717079000007000033654587413DEBDIRECTOLEG11917       
011511512044940020163922178           P0110463330046316680283000005250033654587413DEBDIRECTOLEG11006       
285511512044940020263875932           P2850662940094751475398000008000033654587413DEBDIRECTOLEG11622       
011511512044940023325741279           P0110463330046316750515000005250033654587413DEBDIRECTOLEG11441       
011511512044940020163923492           P0110463330046316680351000012000033654587413DEBDIRECTOLEG889         
034511512044940020163920248           P0340255108122870145008000011000033654587413DEBDIRECTOLEG446         
011511512044940020109858731           P0110463330046316659997000005410033654587413DEBDIRECTOLEG729         
011511512044940020113585537           P0110463330046316662133000005250033654587413DEBDIRECTOLEG11893       
011511512044940020304795264           P0110463330046316721133000005250033654587413DEBDIRECTOLEG11061       
011511512044940020240074800           P0110463330046316702929000012000033654587413DEBDIRECTOLEG11722       
011511512044940027251157478           P0110463330046316792065000008000033654587413DEBDIRECTOLEG20289       
011511512044940027299412712           P0110463330046316897883000008000033654587413DEBDIRECTOLEG13598       
285511512044940020310837963           P2850662940094793254658000007000033654587413DEBDIRECTOLEG11132       
285511512044940020340197543           P2850662940094782013358000008000033654587413DEBDIRECTOLEG11616       
285511512044940020274351765           P2850662940094836018638000008000033654587413DEBDIRECTOLEG20530       
285511512044940027120380600           P2850662940094750063608000008000033654587413DEBDIRECTOLEG11993       
011511512044940020085700260           P0110463330046316655865000005250033654587413DEBDIRECTOLEG718         
285511512044940027257011718           P2850662940094750882498000008000033654587413DEBDIRECTOLEG20472       
285511512044940027248285589           P2850662940094775782928000008000033654587413DEBDIRECTOLEG646         
285511512044940027207940742           P2850662940094025211518000005250033654587413DEBDIRECTOLEG165         
034511512044940027323208501           P0340255108122873467004000005250033654587413DEBDIRECTOLEG12257       
285511512044940027174511093           P2850662940094826312638000008000033654587413DEBDIRECTOLEG8168        
285511512044940020169676829           P2850662940094749827518000007000033654587413DEBDIRECTOLEG11186       
011511512044940020250361557           P0110463330046316705829000011000033654587413DEBDIRECTOLEG11153       
034511512044940027315519816           P0340255108122866035001000008000033654587413DEBDIRECTOLEG11788       
285511512044940027239976447           P2850662940094787816488000008000033654587413DEBDIRECTOLEG21557       
285511512044940027109858035           P2850662940094756486168000008000033654587413DEBDIRECTOLEG8596        
011511512044940027103880950           P0110463330046316753279000008000033654587413DEBDIRECTOLEG1809        
034511512044940027251157532           P0340255108122861339009000008000033654587413DEBDIRECTOLEG11592       
011511512044940020259590338           P0110463330046316708583000005250033654587413DEBDIRECTOLEG11546       
285511512044940027203707709           P2850662940094056011628000008000033654587413DEBDIRECTOLEG21297       
285511512044940023183048619           P2850662940094788475888000015940033654587413DEBDIRECTOLEG483         
011511512044940020227438488           P0110463330046316698929000005000033654587413DEBDIRECTOLEG864         
285511512044940027257864613           P2850662940094801301978000008000033654587413DEBDIRECTOLEG11299       
285511512044940027332804206           P2850662940094797235778000005250033654587413DEBDIRECTOLEG12644       
011511512044940027262334967           P0110463330046317185879000008000033654587413DEBDIRECTOLEG21602       
034511512044940027260817316           P0340255108122868732016000003340033654587413DEBDIRECTOLEG11350       
034511512044940027203704858           P0340255108122870047007000008320033654587413DEBDIRECTOLEG21773       
034511512044940020296044246           P0340255108730047072011000005090033654587413DEBDIRECTOLEG517         
011511512044940020170617984           P0110463330046316683565000005250033654587413DEBDIRECTOLEG565         
285511512044940027123512532           P2850662940094840839638000008000033654587413DEBDIRECTOLEG1550        
285511512044940027926545855           P2850662940094746592338000007180033654587413DEBDIRECTOLEG843         
285511512044940027263491179           P2850662940094799327488000008000033654587413DEBDIRECTOLEG8576        
285511512044940020142459001           P2850662940094812256928000008000033654587413DEBDIRECTOLEG184         
011511512044940027238310852           P0110463330046316787915000005250033654587413DEBDIRECTOLEG869         
011511512044940027118462284           P0110463330046316756933000008000033654587413DEBDIRECTOLEG11367       
034511512044940023227439394           P0340255108122855426000000008000033654587413DEBDIRECTOLEG896         
285511512044940020203706287           P2850662940094795966218000010000033654587413DEBDIRECTOLEG12341       
285511512044940020234450345           P2850662940094785883488000003000033654587413DEBDIRECTOLEG11131       
011511512044940027183049688           P0110463330046316774533000004130033654587413DEBDIRECTOLEG21494       
034511512044940020217802939           P0340255108730038612020000002500033654587413DEBDIRECTOLEG1217        
034511512044940020219732490           P0340292600292000585009000008000033654587413DEBDIRECTOLEG11786       
285511512044940020370997854           P2850662940094786117278000005250033654587413DEBDIRECTOLEG13712       
285511512044940020242600348           P2850662940094066794498000008000033654587413DEBDIRECTOLEG1775        
034511512044940027261323376           P0340255108122853174016000008000033654587413DEBDIRECTOLEG11751       
034511512044940020162084667           P0340255108730039774011000005250033654587413DEBDIRECTOLEG20602       
285511512044940027266459551           P2850662940094759857088000010000033654587413DEBDIRECTOLEG11365       
034511512044940020255208676           P0340255108122877079009000002500033654587413DEBDIRECTOLEG12631       
285511512044940020244697160           P2850662940094762647618000013720033654587413DEBDIRECTOLEG20136       
011511512044940020100451442           P0110463330046316656097000004690033654587413DEBDIRECTOLEG146         
011511512044940020130526307           P0110463330046316669165000009790033654587413DEBDIRECTOLEG348         
285511512044940020288121304           P2850662940094054938138000005000033654587413DEBDIRECTOLEG11624       
034511512044940020170957238           P0340255108730038502015000005250033654587413DEBDIRECTOLEG876         
285511512044940020299408931           P2850662940094783715918000008000033654587413DEBDIRECTOLEG11141       
034511512044940027139896450           P0340255108730038474011000008000033654587413DEBDIRECTOLEG293         
011511512044940027170618500           P0110463330046316770265000005250033654587413DEBDIRECTOLEG1535        
034511512044940023248287489           P0340255108122861834016000008000033654587413DEBDIRECTOLEG12348       
285511512044940020160539055           P2850662940094843578918000005800033654587413DEBDIRECTOLEG393         
034511512044940020104420088           P0340255108122870033004000002000033654587413DEBDIRECTOLEG21536       
285511512044940023179952254           P2850662940094024485758000005000033654587413DEBDIRECTOLEG11388       
011511512044940027264582194           P0110463330046316797183000008000033654587413DEBDIRECTOLEG13192       
034511512044940027303917727           P0340255108122857298006000007000033654587413DEBDIRECTOLEG1123        
011511512044940027203705005           P0110463330046316778351000002420033654587413DEBDIRECTOLEG908         
