285511509044940020142455782           P2850662940094728197788000002000033654587413DEBDIRECTOLEG884         
285511509044940020109859959           P2850662940094061317748000002500033654587413DEBDIRECTOLEG755         
285511509044940027179953027           P2850662940094783013388000005000033654587413DEBDIRECTOLEG747         
011511509044940020147597740           P0110463330046316677283000005000033654587413DEBDIRECTOLEG993         
285511509044940020253833646           P2850662940094786152628000002500033654587413DEBDIRECTOLEG12780       
285511509044940020217802300           P2850662940094786512158000003750033654587413DEBDIRECTOLEG12176       
285511509044940027248287980           P2850662940094794435348000002500033654587413DEBDIRECTOLEG21263       
285511509044940027248287980           P2850662940094794435348000002500033654587413DEBDIRECTOLEG21263       
285511509044940020174514969           P2850662940094786042248000002500033654587413DEBDIRECTOLEG11100       
034511509044940027230827597           P0340255108122855391011000005000033654587413DEBDIRECTOLEG21428       
034511509044940027223919508           P0340255108122868329001000030000033654587413DEBDIRECTOLEG12022       
285511509044940020258255209           P2850662940094747087558000002500033654587413DEBDIRECTOLEG11138       
034511509044940020343472189           P0340255108220021962002000002500033654587413DEBDIRECTOLEG12690       
034511509044940020372540037           P0340255108122882599011000002500033654587413DEBDIRECTOLEG12722       
034511509044940027126799719           P0340255108730038854000000005000033654587413DEBDIRECTOLEG89          
285511509044940020303920820           P2850662940094759148128000002500033654587413DEBDIRECTOLEG12417       
011511509044940027213891478           P0110463330046316780983000002000033654587413DEBDIRECTOLEG11758       
285511509044940020240216702           P2850662940094785797538000002500033654587413DEBDIRECTOLEG13386       
011511509044940020291657304           P0110463330046317177683000002500033654587413DEBDIRECTOLEG13782       
285511509044940020251155179           P2850662940094780546968000002500033654587413DEBDIRECTOLEG11313       
034511509044940027139896450           P0340255108730038474011000002050033654587413DEBDIRECTOLEG293         
285511509044940020084306453           P2850662940094014703158000002500033654587413DEBDIRECTOLEG794         
285511509044940020310192504           P2850662940094800817478000005000033654587413DEBDIRECTOLEG11632       
285511509044940027175795206           P2850662940094756598858000005000033654587413DEBDIRECTOLEG21426       
034511509044940027213897212           P0340255108122855421004000006000033654587413DEBDIRECTOLEG21433       
285511509044940020139893485           P2850662940094783349038000012500033654587413DEBDIRECTOLEG816         
034511509044940020206793377           P0340255108122869827009000005680033654587413DEBDIRECTOLEG20569       
285511509044940023174512094           P2850662940094798339868000002000033654587413DEBDIRECTOLEG12564       
034511509044940020160538431           P0340255108730047041008000004500033654587413DEBDIRECTOLEG808         
285511509044940020241759254           P2850662940094755922128000005000033654587413DEBDIRECTOLEG11901       
285511509044940020325745011           P2850662940094791312558000002500033654587413DEBDIRECTOLEG13313       
011511509044940027203705005           P0110463330046316778351000005000033654587413DEBDIRECTOLEG908         
285511509044940027307843884           P2850662940094751937418000005000033654587413DEBDIRECTOLEG1120        
285511509044940020213892143           P2850662940094758445978000006000033654587413DEBDIRECTOLEG20216       
285511509044940027282128492           P2850662940094746966168000005000033654587413DEBDIRECTOLEG11087       
011511509044940027222502069           P0110463330046316782347000005000033654587413DEBDIRECTOLEG21463       
285511509044940020339180580           P2850662940094752162808000005000033654587413DEBDIRECTOLEG11672       
285511509044940020137143667           P2850662940094730832688000004360033654587413DEBDIRECTOLEG20606       
285511509044940020107994824           P2850662940094794752298000003150033654587413DEBDIRECTOLEG740         
034511509044940020055169994           P0340255108100511875006000003700033654587413DEBDIRECTOLEG21519       
285511509044940027231642043           P2850662940094781124558000005000033654587413DEBDIRECTOLEG11349       
034511509044940020127834181           P0340255108122870158008000004240033654587413DEBDIRECTOLEG11276       
285511509044940027254025742           P2850662940094779462778000006830033654587413DEBDIRECTOLEG372         
285511509044940023387905189           P2850662940094790982558000005000033654587413DEBDIRECTOLEG12340       
285511509044940020401002589           P2850662940094777213378000005000033654587413DEBDIRECTOLEG11611       
034511509044940020319392123           P0340255108122858378017000005000033654587413DEBDIRECTOLEG11398       
034511509044940020242602065           P0340255108730096106019000004590033654587413DEBDIRECTOLEG11900       
285511509044940020185957374           P2850662940094783541748000005000033654587413DEBDIRECTOLEG1272        
034511509044940020104422730           P0340255108730039665016000005000033654587413DEBDIRECTOLEG1464        
285511509044940020279655460           P2850662940094746099068000004160033654587413DEBDIRECTOLEG11287       
285511509044940027270427532           P2850662940094020480078000005000033654587413DEBDIRECTOLEG832         
034511509044940020137142407           P0340255108730038998010000006340033654587413DEBDIRECTOLEG695         
285511509044940023350746889           P2850662940094757678708000007340033654587413DEBDIRECTOLEG13086       
285511509044940020260196546           P2850662940094793946508000003310033654587413DEBDIRECTOLEG514         
285511509044940020274065223           P2850662940094793483478000003000033654587413DEBDIRECTOLEG11807       
034511509044940020230825044           P0340255108122869973009000024740033654587413DEBDIRECTOLEG1135        
5115090449400           P000002000033654587413DEBDIRECTOLEG            
285511509044940020122254128           P2850662940094794308118000003930033654587413DEBDIRECTOLEG11804       
285511509044940027247766397           P2850662930094109264721000004870033654587413DEBDIRECTOLEG228         
285511509044940023122255999           P2850662940094797840738000005000033654587413DEBDIRECTOLEG454         
034511509044940020372540037           P0340255108122882599011000005000033654587413DEBDIRECTOLEG12722       
011511509044940027307840478           P0110463330046316807051000002500033654587413DEBDIRECTOLEG12344       
285511509044940020325440849           P2850662940094793480158000004040033654587413DEBDIRECTOLEG11923       
011511509044940027295396186           P0110463330046316805451000005000033654587413DEBDIRECTOLEG11176       
011511509044940020268100300           P0110463330046316711729000005000033654587413DEBDIRECTOLEG21776       
011511509044940027130818175           P0110463330046316761151000006250033654587413DEBDIRECTOLEG11341       
011511509044940020326999688           P0110463330046316727551000005000033654587413DEBDIRECTOLEG11633       
011511509044940020285774218           P0110463330046316716915000005000033654587413DEBDIRECTOLEG494         
285511509044940020231689762           P2850662940094749088368000005000033654587413DEBDIRECTOLEG8443        
285511509044940020142455782           P2850662940094728197788000002000033654587413DEBDIRECTOLEG884         
285511509044940020358176500           P2850662940094790952968000002500033654587413DEBDIRECTOLEG20563       
011511509044940020330342588           P0110463330046317628297000002000033654587413DEBDIRECTOLEG12581       
285511509044940023358183379           P2850662940094763487068000005000033654587413DEBDIRECTOLEG12694       
011511509044940020101853463           P0110463330046316656183000005000033654587413DEBDIRECTOLEG1155        
285511509044940027221225150           P2850662940094798275948000004000033654587413DEBDIRECTOLEG1803        
285511509044940023251155739           P2850662940094782010908000014560033654587413DEBDIRECTOLEG11487       
011511509044940027224952169           P0110463330046316783333000005000033654587413DEBDIRECTOLEG11361       
285511509044940020110010126           P2850662940094786707828000005000033654587413DEBDIRECTOLEG422         
034511509044940020255208676           P0340255108122877079009000017500033654587413DEBDIRECTOLEG12631       
285511509044940027280545061           P2850662940094759671538000005000033654587413DEBDIRECTOLEG11713       
285511509044940027179953027           P2850662940094783013388000002500033654587413DEBDIRECTOLEG747         
285511509044940027183048339           P2850662940094756825068000004040033654587413DEBDIRECTOLEG187         
285511509044940027127114043           P2850662940094792999008000005000033654587413DEBDIRECTOLEG1452        
285511509044940027274071341           P2850662940094788095288000003130033654587413DEBDIRECTOLEG12359       
034511509044940027101487186           P0340255108122855756010000005000033654587413DEBDIRECTOLEG20400       
285511509044940020253833646           P2850662940094786152628000001500033654587413DEBDIRECTOLEG12780       
011511509044940027289326529           P0110463330046316749047000003760033654587413DEBDIRECTOLEG12580       
285511509044940027303918294           P2850662940094795625258000017750033654587413DEBDIRECTOLEG11052       
285511509044940020239976469           P2850662940094784873228000002000033654587413DEBDIRECTOLEG13388       
011511509044940027252569087           P0110463330046316792683000005000033654587413DEBDIRECTOLEG11221       
285511509044940027262479051           P2850662940094757169828000002500033654587413DEBDIRECTOLEG11210       
285511509044940020146885390           P2850662940094795870658000005000033654587413DEBDIRECTOLEG823         
285511509044940023279653149           P2850662940094800639458000004000033654587413DEBDIRECTOLEG12680       
285511509044940027162977291           P2850662940094786050328000002500033654587413DEBDIRECTOLEG8624        
285511509044940027403214537           P2850662940094796197118000002000033654587413DEBDIRECTOLEG20005       
